{
  "_format": "hh-sol-artifact-1",
  "contractName": "CupCoin",
  "sourceName": "contracts/CupCoin.sol",
  "abi": [
    {
      "inputs": [
        {
          "internalType": "uint256",
          "name": "cap",
          "type": "uint256"
        },
        {
          "internalType": "uint256",
          "name": "reward",
          "type": "uint256"
        }
      ],
      "stateMutability": "nonpayable",
      "type": "constructor"
    },
    {
      "anonymous": false,
      "inputs": [
        {
          "indexed": true,
          "internalType": "address",
          "name": "owner",
          "type": "address"
        },
        {
          "indexed": true,
          "internalType": "address",
          "name": "spender",
          "type": "address"
        },
        {
          "indexed": false,
          "internalType": "uint256",
          "name": "value",
          "type": "uint256"
        }
      ],
      "name": "Approval",
      "type": "event"
    },
    {
      "anonymous": false,
      "inputs": [
        {
          "indexed": true,
          "internalType": "address",
          "name": "from",
          "type": "address"
        },
        {
          "indexed": true,
          "internalType": "address",
          "name": "to",
          "type": "address"
        },
        {
          "indexed": false,
          "internalType": "uint256",
          "name": "value",
          "type": "uint256"
        }
      ],
      "name": "Transfer",
      "type": "event"
    },
    {
      "inputs": [
        {
          "internalType": "address",
          "name": "owner",
          "type": "address"
        },
        {
          "internalType": "address",
          "name": "spender",
          "type": "address"
        }
      ],
      "name": "allowance",
      "outputs": [
        {
          "internalType": "uint256",
          "name": "",
          "type": "uint256"
        }
      ],
      "stateMutability": "view",
      "type": "function"
    },
    {
      "inputs": [
        {
          "internalType": "address",
          "name": "spender",
          "type": "address"
        },
        {
          "internalType": "uint256",
          "name": "amount",
          "type": "uint256"
        }
      ],
      "name": "approve",
      "outputs": [
        {
          "internalType": "bool",
          "name": "",
          "type": "bool"
        }
      ],
      "stateMutability": "nonpayable",
      "type": "function"
    },
    {
      "inputs": [
        {
          "internalType": "address",
          "name": "account",
          "type": "address"
        }
      ],
      "name": "balanceOf",
      "outputs": [
        {
          "internalType": "uint256",
          "name": "",
          "type": "uint256"
        }
      ],
      "stateMutability": "view",
      "type": "function"
    },
    {
      "inputs": [],
      "name": "blockReward",
      "outputs": [
        {
          "internalType": "uint256",
          "name": "",
          "type": "uint256"
        }
      ],
      "stateMutability": "view",
      "type": "function"
    },
    {
      "inputs": [
        {
          "internalType": "uint256",
          "name": "amount",
          "type": "uint256"
        }
      ],
      "name": "burn",
      "outputs": [],
      "stateMutability": "nonpayable",
      "type": "function"
    },
    {
      "inputs": [
        {
          "internalType": "address",
          "name": "account",
          "type": "address"
        },
        {
          "internalType": "uint256",
          "name": "amount",
          "type": "uint256"
        }
      ],
      "name": "burnFrom",
      "outputs": [],
      "stateMutability": "nonpayable",
      "type": "function"
    },
    {
      "inputs": [],
      "name": "cap",
      "outputs": [
        {
          "internalType": "uint256",
          "name": "",
          "type": "uint256"
        }
      ],
      "stateMutability": "view",
      "type": "function"
    },
    {
      "inputs": [],
      "name": "decimals",
      "outputs": [
        {
          "internalType": "uint8",
          "name": "",
          "type": "uint8"
        }
      ],
      "stateMutability": "view",
      "type": "function"
    },
    {
      "inputs": [
        {
          "internalType": "address",
          "name": "spender",
          "type": "address"
        },
        {
          "internalType": "uint256",
          "name": "subtractedValue",
          "type": "uint256"
        }
      ],
      "name": "decreaseAllowance",
      "outputs": [
        {
          "internalType": "bool",
          "name": "",
          "type": "bool"
        }
      ],
      "stateMutability": "nonpayable",
      "type": "function"
    },
    {
      "inputs": [],
      "name": "destroy",
      "outputs": [],
      "stateMutability": "nonpayable",
      "type": "function"
    },
    {
      "inputs": [
        {
          "internalType": "address",
          "name": "spender",
          "type": "address"
        },
        {
          "internalType": "uint256",
          "name": "addedValue",
          "type": "uint256"
        }
      ],
      "name": "increaseAllowance",
      "outputs": [
        {
          "internalType": "bool",
          "name": "",
          "type": "bool"
        }
      ],
      "stateMutability": "nonpayable",
      "type": "function"
    },
    {
      "inputs": [],
      "name": "name",
      "outputs": [
        {
          "internalType": "string",
          "name": "",
          "type": "string"
        }
      ],
      "stateMutability": "view",
      "type": "function"
    },
    {
      "inputs": [],
      "name": "owner",
      "outputs": [
        {
          "internalType": "address payable",
          "name": "",
          "type": "address"
        }
      ],
      "stateMutability": "view",
      "type": "function"
    },
    {
      "inputs": [
        {
          "internalType": "uint256",
          "name": "reward",
          "type": "uint256"
        }
      ],
      "name": "setBlockReward",
      "outputs": [],
      "stateMutability": "nonpayable",
      "type": "function"
    },
    {
      "inputs": [],
      "name": "symbol",
      "outputs": [
        {
          "internalType": "string",
          "name": "",
          "type": "string"
        }
      ],
      "stateMutability": "view",
      "type": "function"
    },
    {
      "inputs": [],
      "name": "totalSupply",
      "outputs": [
        {
          "internalType": "uint256",
          "name": "",
          "type": "uint256"
        }
      ],
      "stateMutability": "view",
      "type": "function"
    },
    {
      "inputs": [
        {
          "internalType": "address",
          "name": "to",
          "type": "address"
        },
        {
          "internalType": "uint256",
          "name": "amount",
          "type": "uint256"
        }
      ],
      "name": "transfer",
      "outputs": [
        {
          "internalType": "bool",
          "name": "",
          "type": "bool"
        }
      ],
      "stateMutability": "nonpayable",
      "type": "function"
    },
    {
      "inputs": [
        {
          "internalType": "address",
          "name": "from",
          "type": "address"
        },
        {
          "internalType": "address",
          "name": "to",
          "type": "address"
        },
        {
          "internalType": "uint256",
          "name": "amount",
          "type": "uint256"
        }
      ],
      "name": "transferFrom",
      "outputs": [
        {
          "internalType": "bool",
          "name": "",
          "type": "bool"
        }
      ],
      "stateMutability": "nonpayable",
      "type": "function"
    }
  ],
  "bytecode": "0x60a06040523480156200001157600080fd5b5060405162002c9338038062002c93833981810160405281019062000037919062000602565b620000476200021e60201b60201c565b600a620000559190620007d9565b826200006291906200082a565b6040518060400160405280600781526020017f437570436f696e000000000000000000000000000000000000000000000000008152506040518060400160405280600381526020017f43555000000000000000000000000000000000000000000000000000000000008152508160039081620000df919062000ae5565b508060049081620000f1919062000ae5565b505050600081116200013a576040517f08c379a0000000000000000000000000000000000000000000000000000000008152600401620001319062000c2d565b60405180910390fd5b80608081815250505033600560006101000a81548173ffffffffffffffffffffffffffffffffffffffff021916908373ffffffffffffffffffffffffffffffffffffffff160217905550620001e5600560009054906101000a900473ffffffffffffffffffffffffffffffffffffffff16620001bb6200021e60201b60201c565b600a620001c99190620007d9565b624c4b40620001d991906200082a565b6200022760201b60201c565b620001f56200021e60201b60201c565b600a620002039190620007d9565b816200021091906200082a565b600681905550505062000d9c565b60006012905090565b62000237620002b860201b60201c565b816200024d620002c260201b620004561760201c565b62000259919062000c4f565b11156200029d576040517f08c379a0000000000000000000000000000000000000000000000000000000008152600401620002949062000cda565b60405180910390fd5b620002b48282620002cc60201b620008cf1760201c565b5050565b6000608051905090565b6000600254905090565b620002dc620002b860201b60201c565b81620002f2620002c260201b620004561760201c565b620002fe919062000c4f565b111562000342576040517f08c379a0000000000000000000000000000000000000000000000000000000008152600401620003399062000cda565b60405180910390fd5b6200035982826200035d60201b620009391760201c565b5050565b600073ffffffffffffffffffffffffffffffffffffffff168273ffffffffffffffffffffffffffffffffffffffff1603620003cf576040517f08c379a0000000000000000000000000000000000000000000000000000000008152600401620003c69062000d4c565b60405180910390fd5b620003e360008383620004ca60201b60201c565b8060026000828254620003f7919062000c4f565b92505081905550806000808473ffffffffffffffffffffffffffffffffffffffff1673ffffffffffffffffffffffffffffffffffffffff168152602001908152602001600020600082825401925050819055508173ffffffffffffffffffffffffffffffffffffffff16600073ffffffffffffffffffffffffffffffffffffffff167fddf252ad1be2c89b69c2b068fc378daa952ba7f163c4a11628f55a4df523b3ef83604051620004aa919062000d7f565b60405180910390a3620004c660008383620005a260201b60201c565b5050565b600073ffffffffffffffffffffffffffffffffffffffff168373ffffffffffffffffffffffffffffffffffffffff16141580156200053457504173ffffffffffffffffffffffffffffffffffffffff168273ffffffffffffffffffffffffffffffffffffffff1614155b80156200056e5750600073ffffffffffffffffffffffffffffffffffffffff164173ffffffffffffffffffffffffffffffffffffffff1614155b15620005855762000584620005a760201b60201c565b5b6200059d838383620005bd60201b62000a8f1760201c565b505050565b505050565b620005bb416006546200022760201b60201c565b565b505050565b600080fd5b6000819050919050565b620005dc81620005c7565b8114620005e857600080fd5b50565b600081519050620005fc81620005d1565b92915050565b600080604083850312156200061c576200061b620005c2565b5b60006200062c85828601620005eb565b92505060206200063f85828601620005eb565b9150509250929050565b7f4e487b7100000000000000000000000000000000000000000000000000000000600052601160045260246000fd5b60008160011c9050919050565b6000808291508390505b6001851115620006d757808604811115620006af57620006ae62000649565b5b6001851615620006bf5780820291505b8081029050620006cf8562000678565b94506200068f565b94509492505050565b600082620006f25760019050620007c5565b81620007025760009050620007c5565b81600181146200071b576002811462000726576200075c565b6001915050620007c5565b60ff8411156200073b576200073a62000649565b5b8360020a91508482111562000755576200075462000649565b5b50620007c5565b5060208310610133831016604e8410600b8410161715620007965782820a90508381111562000790576200078f62000649565b5b620007c5565b620007a5848484600162000685565b92509050818404811115620007bf57620007be62000649565b5b81810290505b9392505050565b600060ff82169050919050565b6000620007e682620005c7565b9150620007f383620007cc565b9250620008227fffffffffffffffffffffffffffffffffffffffffffffffffffffffffffffffff8484620006e0565b905092915050565b60006200083782620005c7565b91506200084483620005c7565b92508282026200085481620005c7565b915082820484148315176200086e576200086d62000649565b5b5092915050565b600081519050919050565b7f4e487b7100000000000000000000000000000000000000000000000000000000600052604160045260246000fd5b7f4e487b7100000000000000000000000000000000000000000000000000000000600052602260045260246000fd5b60006002820490506001821680620008f757607f821691505b6020821081036200090d576200090c620008af565b5b50919050565b60008190508160005260206000209050919050565b60006020601f8301049050919050565b600082821b905092915050565b600060088302620009777fffffffffffffffffffffffffffffffffffffffffffffffffffffffffffffffff8262000938565b62000983868362000938565b95508019841693508086168417925050509392505050565b6000819050919050565b6000620009c6620009c0620009ba84620005c7565b6200099b565b620005c7565b9050919050565b6000819050919050565b620009e283620009a5565b620009fa620009f182620009cd565b84845462000945565b825550505050565b600090565b62000a1162000a02565b62000a1e818484620009d7565b505050565b5b8181101562000a465762000a3a60008262000a07565b60018101905062000a24565b5050565b601f82111562000a955762000a5f8162000913565b62000a6a8462000928565b8101602085101562000a7a578190505b62000a9262000a898562000928565b83018262000a23565b50505b505050565b600082821c905092915050565b600062000aba6000198460080262000a9a565b1980831691505092915050565b600062000ad5838362000aa7565b9150826002028217905092915050565b62000af08262000875565b67ffffffffffffffff81111562000b0c5762000b0b62000880565b5b62000b188254620008de565b62000b2582828562000a4a565b600060209050601f83116001811462000b5d576000841562000b48578287015190505b62000b54858262000ac7565b86555062000bc4565b601f19841662000b6d8662000913565b60005b8281101562000b975784890151825560018201915060208501945060208101905062000b70565b8683101562000bb7578489015162000bb3601f89168262000aa7565b8355505b6001600288020188555050505b505050505050565b600082825260208201905092915050565b7f45524332304361707065643a2063617020697320300000000000000000000000600082015250565b600062000c1560158362000bcc565b915062000c228262000bdd565b602082019050919050565b6000602082019050818103600083015262000c488162000c06565b9050919050565b600062000c5c82620005c7565b915062000c6983620005c7565b925082820190508082111562000c845762000c8362000649565b5b92915050565b7f45524332304361707065643a2063617020657863656564656400000000000000600082015250565b600062000cc260198362000bcc565b915062000ccf8262000c8a565b602082019050919050565b6000602082019050818103600083015262000cf58162000cb3565b9050919050565b7f45524332303a206d696e7420746f20746865207a65726f206164647265737300600082015250565b600062000d34601f8362000bcc565b915062000d418262000cfc565b602082019050919050565b6000602082019050818103600083015262000d678162000d25565b9050919050565b62000d7981620005c7565b82525050565b600060208201905062000d96600083018462000d6e565b92915050565b608051611edb62000db860003960006105540152611edb6000f3fe608060405234801561001057600080fd5b50600436106101165760003560e01c806342966c68116100a25780638da5cb5b116100715780638da5cb5b146102cf57806395d89b41146102ed578063a457c2d71461030b578063a9059cbb1461033b578063dd62ed3e1461036b57610116565b806342966c681461025d57806370a082311461027957806379cc6790146102a957806383197ef0146102c557610116565b80631a18e707116100e95780631a18e707146101a557806323b872dd146101c1578063313ce567146101f1578063355274ea1461020f578063395093511461022d57610116565b806306fdde031461011b578063095ea7b3146101395780630ac168a11461016957806318160ddd14610187575b600080fd5b61012361039b565b6040516101309190611301565b60405180910390f35b610153600480360381019061014e91906113bc565b61042d565b6040516101609190611417565b60405180910390f35b610171610450565b60405161017e9190611441565b60405180910390f35b61018f610456565b60405161019c9190611441565b60405180910390f35b6101bf60048036038101906101ba919061145c565b610460565b005b6101db60048036038101906101d69190611489565b610518565b6040516101e89190611417565b60405180910390f35b6101f9610547565b60405161020691906114f8565b60405180910390f35b610217610550565b6040516102249190611441565b60405180910390f35b610247600480360381019061024291906113bc565b610578565b6040516102549190611417565b60405180910390f35b6102776004803603810190610272919061145c565b6105af565b005b610293600480360381019061028e9190611513565b6105c3565b6040516102a09190611441565b60405180910390f35b6102c360048036038101906102be91906113bc565b61060b565b005b6102cd61062b565b005b6102d76106f6565b6040516102e49190611561565b60405180910390f35b6102f561071c565b6040516103029190611301565b60405180910390f35b610325600480360381019061032091906113bc565b6107ae565b6040516103329190611417565b60405180910390f35b610355600480360381019061035091906113bc565b610825565b6040516103629190611417565b60405180910390f35b6103856004803603810190610380919061157c565b610848565b6040516103929190611441565b60405180910390f35b6060600380546103aa906115eb565b80601f01602080910402602001604051908101604052809291908181526020018280546103d6906115eb565b80156104235780601f106103f857610100808354040283529160200191610423565b820191906000526020600020905b81548152906001019060200180831161040657829003601f168201915b5050505050905090565b600080610438610a94565b9050610445818585610a9c565b600191505092915050565b60065481565b6000600254905090565b600560009054906101000a900473ffffffffffffffffffffffffffffffffffffffff1673ffffffffffffffffffffffffffffffffffffffff163373ffffffffffffffffffffffffffffffffffffffff16146104f0576040517f08c379a00000000000000000000000000000000000000000000000000000000081526004016104e79061168e565b60405180910390fd5b6104f8610547565b600a6105049190611810565b8161050f919061185b565b60068190555050565b600080610523610a94565b9050610530858285610c65565b61053b858585610cf1565b60019150509392505050565b60006012905090565b60007f0000000000000000000000000000000000000000000000000000000000000000905090565b600080610583610a94565b90506105a48185856105958589610848565b61059f919061189d565b610a9c565b600191505092915050565b6105c06105ba610a94565b82610f67565b50565b60008060008373ffffffffffffffffffffffffffffffffffffffff1673ffffffffffffffffffffffffffffffffffffffff168152602001908152602001600020549050919050565b61061d82610617610a94565b83610c65565b6106278282610f67565b5050565b600560009054906101000a900473ffffffffffffffffffffffffffffffffffffffff1673ffffffffffffffffffffffffffffffffffffffff163373ffffffffffffffffffffffffffffffffffffffff16146106bb576040517f08c379a00000000000000000000000000000000000000000000000000000000081526004016106b29061168e565b60405180910390fd5b600560009054906101000a900473ffffffffffffffffffffffffffffffffffffffff1673ffffffffffffffffffffffffffffffffffffffff16ff5b600560009054906101000a900473ffffffffffffffffffffffffffffffffffffffff1681565b60606004805461072b906115eb565b80601f0160208091040260200160405190810160405280929190818152602001828054610757906115eb565b80156107a45780601f10610779576101008083540402835291602001916107a4565b820191906000526020600020905b81548152906001019060200180831161078757829003601f168201915b5050505050905090565b6000806107b9610a94565b905060006107c78286610848565b90508381101561080c576040517f08c379a000000000000000000000000000000000000000000000000000000000815260040161080390611943565b60405180910390fd5b6108198286868403610a9c565b60019250505092915050565b600080610830610a94565b905061083d818585610cf1565b600191505092915050565b6000600160008473ffffffffffffffffffffffffffffffffffffffff1673ffffffffffffffffffffffffffffffffffffffff16815260200190815260200160002060008373ffffffffffffffffffffffffffffffffffffffff1673ffffffffffffffffffffffffffffffffffffffff16815260200190815260200160002054905092915050565b6108d7610550565b816108e0610456565b6108ea919061189d565b111561092b576040517f08c379a0000000000000000000000000000000000000000000000000000000008152600401610922906119af565b60405180910390fd5b6109358282610939565b5050565b600073ffffffffffffffffffffffffffffffffffffffff168273ffffffffffffffffffffffffffffffffffffffff16036109a8576040517f08c379a000000000000000000000000000000000000000000000000000000000815260040161099f90611a1b565b60405180910390fd5b6109b460008383611134565b80600260008282546109c6919061189d565b92505081905550806000808473ffffffffffffffffffffffffffffffffffffffff1673ffffffffffffffffffffffffffffffffffffffff168152602001908152602001600020600082825401925050819055508173ffffffffffffffffffffffffffffffffffffffff16600073ffffffffffffffffffffffffffffffffffffffff167fddf252ad1be2c89b69c2b068fc378daa952ba7f163c4a11628f55a4df523b3ef83604051610a779190611441565b60405180910390a3610a8b600083836111f4565b5050565b505050565b600033905090565b600073ffffffffffffffffffffffffffffffffffffffff168373ffffffffffffffffffffffffffffffffffffffff1603610b0b576040517f08c379a0000000000000000000000000000000000000000000000000000000008152600401610b0290611aad565b60405180910390fd5b600073ffffffffffffffffffffffffffffffffffffffff168273ffffffffffffffffffffffffffffffffffffffff1603610b7a576040517f08c379a0000000000000000000000000000000000000000000000000000000008152600401610b7190611b3f565b60405180910390fd5b80600160008573ffffffffffffffffffffffffffffffffffffffff1673ffffffffffffffffffffffffffffffffffffffff16815260200190815260200160002060008473ffffffffffffffffffffffffffffffffffffffff1673ffffffffffffffffffffffffffffffffffffffff168152602001908152602001600020819055508173ffffffffffffffffffffffffffffffffffffffff168373ffffffffffffffffffffffffffffffffffffffff167f8c5be1e5ebec7d5bd14f71427d1e84f3dd0314c0f7b2291e5b200ac8c7c3b92583604051610c589190611441565b60405180910390a3505050565b6000610c718484610848565b90507fffffffffffffffffffffffffffffffffffffffffffffffffffffffffffffffff8114610ceb5781811015610cdd576040517f08c379a0000000000000000000000000000000000000000000000000000000008152600401610cd490611bab565b60405180910390fd5b610cea8484848403610a9c565b5b50505050565b600073ffffffffffffffffffffffffffffffffffffffff168373ffffffffffffffffffffffffffffffffffffffff1603610d60576040517f08c379a0000000000000000000000000000000000000000000000000000000008152600401610d5790611c3d565b60405180910390fd5b600073ffffffffffffffffffffffffffffffffffffffff168273ffffffffffffffffffffffffffffffffffffffff1603610dcf576040517f08c379a0000000000000000000000000000000000000000000000000000000008152600401610dc690611ccf565b60405180910390fd5b610dda838383611134565b60008060008573ffffffffffffffffffffffffffffffffffffffff1673ffffffffffffffffffffffffffffffffffffffff16815260200190815260200160002054905081811015610e60576040517f08c379a0000000000000000000000000000000000000000000000000000000008152600401610e5790611d61565b60405180910390fd5b8181036000808673ffffffffffffffffffffffffffffffffffffffff1673ffffffffffffffffffffffffffffffffffffffff16815260200190815260200160002081905550816000808573ffffffffffffffffffffffffffffffffffffffff1673ffffffffffffffffffffffffffffffffffffffff168152602001908152602001600020600082825401925050819055508273ffffffffffffffffffffffffffffffffffffffff168473ffffffffffffffffffffffffffffffffffffffff167fddf252ad1be2c89b69c2b068fc378daa952ba7f163c4a11628f55a4df523b3ef84604051610f4e9190611441565b60405180910390a3610f618484846111f4565b50505050565b600073ffffffffffffffffffffffffffffffffffffffff168273ffffffffffffffffffffffffffffffffffffffff1603610fd6576040517f08c379a0000000000000000000000000000000000000000000000000000000008152600401610fcd90611df3565b60405180910390fd5b610fe282600083611134565b60008060008473ffffffffffffffffffffffffffffffffffffffff1673ffffffffffffffffffffffffffffffffffffffff16815260200190815260200160002054905081811015611068576040517f08c379a000000000000000000000000000000000000000000000000000000000815260040161105f90611e85565b60405180910390fd5b8181036000808573ffffffffffffffffffffffffffffffffffffffff1673ffffffffffffffffffffffffffffffffffffffff1681526020019081526020016000208190555081600260008282540392505081905550600073ffffffffffffffffffffffffffffffffffffffff168373ffffffffffffffffffffffffffffffffffffffff167fddf252ad1be2c89b69c2b068fc378daa952ba7f163c4a11628f55a4df523b3ef8460405161111b9190611441565b60405180910390a361112f836000846111f4565b505050565b600073ffffffffffffffffffffffffffffffffffffffff168373ffffffffffffffffffffffffffffffffffffffff161415801561119d57504173ffffffffffffffffffffffffffffffffffffffff168273ffffffffffffffffffffffffffffffffffffffff1614155b80156111d65750600073ffffffffffffffffffffffffffffffffffffffff164173ffffffffffffffffffffffffffffffffffffffff1614155b156111e4576111e36111f9565b5b6111ef838383610a8f565b505050565b505050565b61120541600654611207565b565b61120f610550565b81611218610456565b611222919061189d565b1115611263576040517f08c379a000000000000000000000000000000000000000000000000000000000815260040161125a906119af565b60405180910390fd5b61126d82826108cf565b5050565b600081519050919050565b600082825260208201905092915050565b60005b838110156112ab578082015181840152602081019050611290565b60008484015250505050565b6000601f19601f8301169050919050565b60006112d382611271565b6112dd818561127c565b93506112ed81856020860161128d565b6112f6816112b7565b840191505092915050565b6000602082019050818103600083015261131b81846112c8565b905092915050565b600080fd5b600073ffffffffffffffffffffffffffffffffffffffff82169050919050565b600061135382611328565b9050919050565b61136381611348565b811461136e57600080fd5b50565b6000813590506113808161135a565b92915050565b6000819050919050565b61139981611386565b81146113a457600080fd5b50565b6000813590506113b681611390565b92915050565b600080604083850312156113d3576113d2611323565b5b60006113e185828601611371565b92505060206113f2858286016113a7565b9150509250929050565b60008115159050919050565b611411816113fc565b82525050565b600060208201905061142c6000830184611408565b92915050565b61143b81611386565b82525050565b60006020820190506114566000830184611432565b92915050565b60006020828403121561147257611471611323565b5b6000611480848285016113a7565b91505092915050565b6000806000606084860312156114a2576114a1611323565b5b60006114b086828701611371565b93505060206114c186828701611371565b92505060406114d2868287016113a7565b9150509250925092565b600060ff82169050919050565b6114f2816114dc565b82525050565b600060208201905061150d60008301846114e9565b92915050565b60006020828403121561152957611528611323565b5b600061153784828501611371565b91505092915050565b600061154b82611328565b9050919050565b61155b81611540565b82525050565b60006020820190506115766000830184611552565b92915050565b6000806040838503121561159357611592611323565b5b60006115a185828601611371565b92505060206115b285828601611371565b9150509250929050565b7f4e487b7100000000000000000000000000000000000000000000000000000000600052602260045260246000fd5b6000600282049050600182168061160357607f821691505b602082108103611616576116156115bc565b5b50919050565b7f4f6e6c7920746865206f776e65722063616e2063616c6c20746869732066756e60008201527f6374696f6e000000000000000000000000000000000000000000000000000000602082015250565b600061167860258361127c565b91506116838261161c565b604082019050919050565b600060208201905081810360008301526116a78161166b565b9050919050565b7f4e487b7100000000000000000000000000000000000000000000000000000000600052601160045260246000fd5b60008160011c9050919050565b6000808291508390505b6001851115611734578086048111156117105761170f6116ae565b5b600185161561171f5780820291505b808102905061172d856116dd565b94506116f4565b94509492505050565b60008261174d5760019050611809565b8161175b5760009050611809565b8160018114611771576002811461177b576117aa565b6001915050611809565b60ff84111561178d5761178c6116ae565b5b8360020a9150848211156117a4576117a36116ae565b5b50611809565b5060208310610133831016604e8410600b84101617156117df5782820a9050838111156117da576117d96116ae565b5b611809565b6117ec84848460016116ea565b92509050818404811115611803576118026116ae565b5b81810290505b9392505050565b600061181b82611386565b9150611826836114dc565b92506118537fffffffffffffffffffffffffffffffffffffffffffffffffffffffffffffffff848461173d565b905092915050565b600061186682611386565b915061187183611386565b925082820261187f81611386565b91508282048414831517611896576118956116ae565b5b5092915050565b60006118a882611386565b91506118b383611386565b92508282019050808211156118cb576118ca6116ae565b5b92915050565b7f45524332303a2064656372656173656420616c6c6f77616e63652062656c6f7760008201527f207a65726f000000000000000000000000000000000000000000000000000000602082015250565b600061192d60258361127c565b9150611938826118d1565b604082019050919050565b6000602082019050818103600083015261195c81611920565b9050919050565b7f45524332304361707065643a2063617020657863656564656400000000000000600082015250565b600061199960198361127c565b91506119a482611963565b602082019050919050565b600060208201905081810360008301526119c88161198c565b9050919050565b7f45524332303a206d696e7420746f20746865207a65726f206164647265737300600082015250565b6000611a05601f8361127c565b9150611a10826119cf565b602082019050919050565b60006020820190508181036000830152611a34816119f8565b9050919050565b7f45524332303a20617070726f76652066726f6d20746865207a65726f2061646460008201527f7265737300000000000000000000000000000000000000000000000000000000602082015250565b6000611a9760248361127c565b9150611aa282611a3b565b604082019050919050565b60006020820190508181036000830152611ac681611a8a565b9050919050565b7f45524332303a20617070726f766520746f20746865207a65726f20616464726560008201527f7373000000000000000000000000000000000000000000000000000000000000602082015250565b6000611b2960228361127c565b9150611b3482611acd565b604082019050919050565b60006020820190508181036000830152611b5881611b1c565b9050919050565b7f45524332303a20696e73756666696369656e7420616c6c6f77616e6365000000600082015250565b6000611b95601d8361127c565b9150611ba082611b5f565b602082019050919050565b60006020820190508181036000830152611bc481611b88565b9050919050565b7f45524332303a207472616e736665722066726f6d20746865207a65726f20616460008201527f6472657373000000000000000000000000000000000000000000000000000000602082015250565b6000611c2760258361127c565b9150611c3282611bcb565b604082019050919050565b60006020820190508181036000830152611c5681611c1a565b9050919050565b7f45524332303a207472616e7366657220746f20746865207a65726f206164647260008201527f6573730000000000000000000000000000000000000000000000000000000000602082015250565b6000611cb960238361127c565b9150611cc482611c5d565b604082019050919050565b60006020820190508181036000830152611ce881611cac565b9050919050565b7f45524332303a207472616e7366657220616d6f756e742065786365656473206260008201527f616c616e63650000000000000000000000000000000000000000000000000000602082015250565b6000611d4b60268361127c565b9150611d5682611cef565b604082019050919050565b60006020820190508181036000830152611d7a81611d3e565b9050919050565b7f45524332303a206275726e2066726f6d20746865207a65726f2061646472657360008201527f7300000000000000000000000000000000000000000000000000000000000000602082015250565b6000611ddd60218361127c565b9150611de882611d81565b604082019050919050565b60006020820190508181036000830152611e0c81611dd0565b9050919050565b7f45524332303a206275726e20616d6f756e7420657863656564732062616c616e60008201527f6365000000000000000000000000000000000000000000000000000000000000602082015250565b6000611e6f60228361127c565b9150611e7a82611e13565b604082019050919050565b60006020820190508181036000830152611e9e81611e62565b905091905056fea26469706673582212200cffde7cb0ef06d4f2317a0f728542a9aae0982b9be6e240b54da0d2aa13239e64736f6c63430008110033",
  "linkReferences": {},
  "deployedLinkReferences": {}
}